:0C10000000008831032820008F31D52F1C
:101CB600013400340A340434640080010131890B94
:101CC600602E003421009D149D186A2E6B2E672EFF
:101CD6001C080800F00021001D141D0883399D0012
:101CE6001D0870049D000800FC302100990090300A
:101CF60027009B0021001A1F812E822E7D2E0800B0
:101D060022008E0121008E15083023008E001C3023
:101D160021009D0060309E009F010800F100083000
:101D2600F0007008F20022008E14F11B9B2E9C2EF0
:101D36009D2E8E10000022008E107135F000700866
:101D4600F1000130F2027208031DAA2EAB2E962E68
:101D5600080057302100950022008C010F30210029
:101D66008C0023008C01083024008C0022008D0199
:101D7600F03021008D0023008D01F03024008D000D
:101D860022008E010D3021008E00013023008E00CE
:101D96000800F900FA01FB01F22E7A087407F70031
:101DA60077088600870101088E3191268E317A08E0
:101DB6007307F70077088600870101088E319126A0
:101DC6008E317A08750786007B08763D8700010804
:101DD6008E3191268E310130FA070030FB3D7908AD
:101DE600F700F8017B087806031DFB2E7A087706B4
:101DF600031DFE2EFF2ED02E08008E3177268F3142
:101E06008E31AC268F318E3183268F3110308E3154
:101E16006D268F310730FD001730FC006A30890BC4
:101E2600122FFC0B122FFD0B122F00328E3165265E
:101E36008F31FC00FD017C082000B6007D08B7004C
:101E460000303702813003193602031C2B2F2C2F4A
:101E5600322F3608813EB800FF30373DB9000030DA
:101E660037028D300319360203183A2F3B2F442FC1
:101E7600003037026E30031936020318432F442F01
:101E8600C92F39083502031D4A2F380834020318B2
:101E96004D2F4E2F852FE501E601722F8030FC0075
:101EA6006508C93E860087017C088100C930FC00B0
:101EB6007C08F300AA30FD007D08F4002030F50010
:101EC6000130F6001E308E31CC268F31F0300032D4
:101ED600890B6A2F01302000E5070030E63D3908FE
:101EE600FD003808FC00FD36FC0CFD36FC0C6608CF
:101EF6007D02031D802F65087C020318832F842F23
:101F0600512FC92F35083902031D8B2F340838028B
:101F160003188E2F8F2FC52F3508E8003408E700E9
:101F2600B22F6708C93E860087018101C930FC00CF
:101F36007C08F300AA30FD007D08F4002030F5008F
:101F46000130F6001E308E31CC268F31F030003253
:101F5600890BAA2FFF302000E707FF30E83D39083C
:101F6600FD003808FC00FD36FC0CFD36FC0C7D0837
:101F76006802031DC02F7C0867020318C32FC42FF5
:101F8600942FC92F3908B5003808B4003908B500B0
:101F96003808B4008C19D02FD12F192F0100192F12
:101FA600883103288E315B268F31E1008E315C2625
:101FB6008F31E2008E315D268F31E3008E315E2651
:101FC6008F31E400203084000030850041308E31AE
:101FD6005F268F31A03084000030850048308E3176
:101FE6005F268F3120308400013085001F308E310E
:0A1FF6005F268F3120008F31002F8D
:00000001FF
