:0C10000000008831032820008F31E72F0A
:101E9800640080010131890B4D2F003421009D140D
:101EA8009D18572F582F542F1C080800F6002100A2
:101EB8001D141D0883399D001D0876049D00080027
:101EC800FC3021009900903027009B0021001A1F48
:101ED8006E2F6F2F6A2F080022008E0121008E15A9
:101EE800083023008E001C3021009D0060309E00C9
:101EF8009F01080057302100950022008C010F3007
:101F080021008C0023008C01083024008C00220062
:101F18008D01F03021008D0023008D01F030240068
:101F28008D0022008E010C3021008E0023008E01CE
:101F380008008F3164278F318F317E278F318F31A1
:101F480070278F3110308F315A278F310730F800C2
:101F58001730F7006A30890BAF2FF70BAF2FF80B4C
:101F6800AF2F00328F3152278F31F700F8017708F1
:101F7800F0007808F1007108803AF70080307702A5
:101F8800031DC82F973070020318CB2FCC2FD92FE1
:101F98007108803AF70080307702031DD52F64302E
:101FA80070020318D82FD92FDC2F22008E16DE2FAF
:101FB80022008E1620008C19E22FE32FB62F010085
:101FC800B62F88310328F001F101F201F301F40181
:101FD800F50120308400003085003E308F314C27D9
:101FE8008F31A0308400003085001F308F314C279E
:081FF8008F3120008F319D2F75
:00000001FF
