:0C10000000008831032820008F31D52F1C
:101C9000013400340A340434640080010131890BBA
:101CA0004D2E003421009D149D18572E582E542E71
:101CB0001C080800F00021001D141D0883399D0038
:101CC0001D0870049D000800FC3021009900903030
:101CD00027009B0021001A1F6E2E6F2E6A2E08000F
:101CE00022008E0121008E15083023008E001C304A
:101CF00021009D0060309E009F010800F100083027
:101D0000F0007008F20022008E14F11B882E892E3C
:101D10008A2E8E10000022008E107135F00070089F
:101D2000F1000130F2027208031D972E982E832EC7
:101D3000080057302100950022008C010F3021004F
:101D40008C0023008C01083024008C0022008D01BF
:101D5000F03021008D0023008D01F03024008D0033
:101D600022008E010D3021008E00013023008E00F4
:101D70000800F900FA01FB01DF2E7A0874078600DB
:101D80007B08753D870001088E317E268E317A08EA
:101D90007307F70077088600870101088E317E26D9
:101DA0008E317A087607F7007708860087010108E8
:101DB0008E317E268E310130FA070030FB3D7908E6
:101DC000F700F8017B087806031DE82E7A087706ED
:101DD000031DEB2EEC2EBD2E08008E3164268E31B5
:101DE0008E3199268E318E3170268E3110308E31A3
:101DF0005A268E310730FD001730FC006A30890BFF
:101E0000FF2EFC0BFF2EFD0BFF2E00322000E10108
:101E1000E2018E3152268E31FC00FD017C0820004B
:101E2000B6007D08B7000030370281300319360252
:101E3000031C1B2F1C2F222F3608813EB800FF30B9
:101E4000373DB90022000E080030200037028D30E7
:101E50000319360203182D2F2E2F372F003037028B
:101E60006E30031936020318362F372FC92F390861
:101E70003502031D3D2F380834020318402F412F2F
:101E8000802FE301E4016D2F8030FC006308C93E20
:101E9000860087017C0881006108FC006308AA3E77
:101EA000860087017C088100C930FC007C08F300B3
:101EB0002030F4000130F500AA30FD007D08F60066
:101EC0001E308E31B9268E31F0300032890B652FED
:101ED00001302000E3070030E43D3908FD003808F8
:101EE000FC00FD36FC0CFD36FC0C64087D02031D75
:101EF0007B2F63087C0203187E2F7F2F442FC92F6E
:101F000035083902031D862F340838020318892F3B
:101F10008A2FC52F3508E6003408E500B22F650882
:101F2000C93E8600870181016508AA3E86008701B7
:101F30008101C930FC007C08F3002030F40001303E
:101F4000F500AA30FD007D08F6001E308E31B9265E
:101F50008E31F0300032890BAA2FFF302000E507C8
:101F6000FF30E63D3908FD003808FC00FD36FC0C6A
:101F7000FD36FC0C7D086602031DC02F7C0865023F
:101F80000318C32FC42F8F2FC92F3908B500380865
:101F9000B4003908B5003808B4008C19D02FD12FFF
:101FA000092F0100092F883103288E3148268F31EF
:101FB000E7008E3149268F31E8008E314A268F3175
:101FC000E9008E314B268F31EA002030840000304A
:101FD000850041308E314C268F31A0308400003096
:101FE000850048308E314C268F31203084000130FE
:101FF00085001F308E314C268F3120008E31ED2E22
:00000001FF
