:0C10000000008831032820008F31D52F1C
:101CCE00013400340A340434640080010131890B7C
:101CDE006C2E003421009D149D18762E772E732EB7
:101CEE001C080800F00021001D141D0883399D00FA
:101CFE001D0870049D000800FC30210099009030F2
:101D0E0027009B0021001A1F8D2E8E2E892E080073
:101D1E0022008E0121008E15083023008E001C300B
:101D2E0021009D0060309E009F010800F1000830E8
:101D3E00F0007008F20022008E14F11BA72EA82EC0
:101D4E00A92E8E10000022008E107135F000700842
:101D5E00F1000130F2027208031DB62EB72EA22E2C
:101D6E00080057302100950022008C010F30210011
:101D7E008C0023008C01083024008C0022008D0181
:101D8E00F03021008D0023008D01F03024008D00F5
:101D9E0022008E010D3021008E00013023008E00B6
:101DAE000800F900FA01FB01FE2E7A087407F7000D
:101DBE0077088600870101088E319D268E317A08BC
:101DCE007307F70077088600870101088E319D267C
:101DDE008E317A08750786007B08763D87000108EC
:101DEE008E319D268E310130FA070030FB3D790889
:101DFE00F700F8017B087806031D072F7A0877068F
:101E0E00031D0A2F0B2FDC2E08008E3183268F31F7
:101E1E008E31B8268F318E318F268F3110308E3124
:101E2E0079268F310730FD001730FC006A30890BA0
:101E3E001E2FFC0B1E2FFD0B1E2F00328E31712616
:101E4E008F31FC00FD017C082000B4007D08B50038
:101E5E0000303502813003193402031C372F382F1E
:101E6E003E2F3408813EB800FF30353DB9000030BA
:101E7E003502A130031934020318462F472F502F75
:101E8E00003035025C300319340203184F2F502FE7
:101E9E00962FE301E401852FE101E20120003808CD
:101EAE00FC006308C93E860087017C088107C930A3
:101EBE00FC007C08F300AA30FD007D08F400203001
:101ECE00F5000130F6001E308E31D8268F312000FD
:101EDE003808E1073908E23D6208803AFC0080309C
:101EEE007C02031D7C2FFF306102031C7F2F802F8D
:101EFE00552F01302000E3070030E43D3908FD0086
:101F0E003808FC00FD36FC0C64087D02031D912F81
:101F1E0063087C020318942F952F532FCC2F073074
:101F2E00FD001730FC006A30890B9B2FFC0B9B2F9A
:101F3E00FD0B9B2F00322000E501E6012000650815
:101F4E00C93E8600870181010130E5070030E63D7C
:101F5E006608803AFC0080307C02031DB82F1F30CB
:101F6E006502031CBB2FBC2FA52FC930FC007C08BB
:101F7E00F300AA30FD007D08F4002030F50001309A
:101F8E00F6001E308E31D8268F3120008C19D02FBE
:101F9E00D12F252F0100252F883103288E3167265A
:101FAE008F31E7008E3168268F31E8008E31692639
:101FBE008F31E9008E316A268F31EA00203084009D
:101FCE000030850041308E316B268F31A030840079
:101FDE000030850048308E316B268F3120308400E2
:101FEE00013085001F308E316B268F3120008F31EE
:021FFE000C2FA6
:00000001FF
