:0C10000000008831032820008F31CD2F24
:101E1A00013400340A340434640080010131890B2E
:101E2A00122F003421009D149D181C2F1D2F192FCD
:101E3A001C080800F90021001D141D0883399D00A3
:101E4A001D0879049D000800FC302100990090309B
:101E5A0027009B0021001A1F332F342F2F2F080031
:101E6A0022008E0121008E15083023008E001C30BE
:101E7A0021009D0060309E009F010800573021001C
:101E8A00950022008C010F3021008C0023008C0168
:101E9A00083024008C0022008D01F03021008D00D2
:101EAA0023008D01F03024008D0022008E010C30B9
:101EBA0021008E0023008E0108008F3129278F31DF
:101ECA008F3143278F318F3135278F3110308F3142
:101EDA001F278F310730FB001730FA006A30890B51
:101EEA00742FFA0B742FFB0B742F00328F311727C4
:101EFA008F31FA00FB017A08F0007B08F1007208C2
:101F0A00813E2000BE00FF30733DBF0000307102E9
:101F1A00C930031970020318932F942F9D2F003094
:101F2A007102C8300319700203189C2F9D2FA12F2C
:101F3A007108F3007008F20000307302C930031907
:101F4A0072020318A92FAA2FB32F00307302C830C8
:101F5A00031972020318B22FB32FB62F22008E165E
:101F6A00B82F22008E12FF3071027F3003197002DF
:101F7A00031CC02FC12FC32F0E16C42F0E12200010
:101F8A008C19C82FC92F7B2F01007B2F883103287A
:101F9A008F310F278F31FC008F3110278F31FD00D1
:101FAA008F310D278F31E2008F310E278F31E300F9
:101FBA00703084000030850009308F3111278F314D
:101FCA00203084000030850042308F3111278F3154
:101FDA00A0308400003085003E308F3111278F31C8
:101FEA0020308400013085001F308F3111278F3156
:061FFA0020008F31622F70
:00000001FF
