:0C10000000008831032820008F31F52FFC
:101CA200640080010131890B522E003421009D1401
:101CB2009D185C2E5D2E592E1C080800F000210094
:101CC2001D141D0883399D001D0870049D00080025
:101CD200FC3021009900903027009B0021001A1F40
:101CE200732E742E6F2E080022008E0121008E1595
:101CF200083023008E001C3021009D0060309E00C1
:101D02009F01080057302100950022008C010F30FE
:101D120021008C0023008C01083024008C0022005A
:101D22008D01F03021008D0023008D01F030240060
:101D32008D0022008E010E3021008E0023008E01C4
:101D4200080000307005F80000307105F90080309D
:101D52007205FA007F307305FB007B087A04790470
:101D62007804031DB52EB62EBE2E0030F3000030CF
:101D7200F2000030F1000030F00000307405F8008D
:101D820000307505F90080307605FA007F3077055E
:101D9200FB007B087A0479047804031DD12ED22E2D
:101DA200DA2E0030F7000030F6000030F500003087
:101DB200F40077087306031DE82E76087206031DE9
:101DC200E82E75087106031DE82E740870060319C3
:101DD200EB2EEC2EEE2E0310EF2E031408008E31A4
:101DE20069268E318E3183268E318E3175268E3163
:101DF20010308E315F268E3107302000C700173039
:101E0200C6006A30890B032FC60B032FC70B032FA3
:101E120000008E3157268E312000C600C701C8014E
:101E2200C9014908F3004808F2004708F1004608D2
:101E3200F00000308F3149278E3173082000C10035
:101E42007208C0007108BF007008BE004108F300AC
:101E52004008F2003F08F1003E08F0004130F70070
:101E62002030F6000030F5000030F4008E31A2265A
:101E72008E31031C3D2F3E2F402F22008E16200054
:101E82008C19442F452F0A2F01000A2F883103286D
:101E9200F800780803194E2F4F2F632FF31F522F8C
:101EA200532F632F7009FA007109FB007209FC00BD
:101EB2007309FD00FA0A0319FB0A0319FC0A031944
:101EC200FD0A6B2F7308FD007208FC007108FB000D
:101ED2007008FA007308720471047004031D722FF3
:101EE200732F7C2F0030F3000030F2000030F1003D
:101EF2000030F000F42F9630F4007408F9008C2FB3
:101F02000130F4007408F9070130FD36FC0CFB0CBB
:101F1200FA0C890B862FFE307D05031D912F922F1F
:101F2200812FA62F0130F4007408F9070130FA0757
:101F32000030FB3D0030FC3D0030FD3D0130FD3600
:101F4200FC0CFB0CFA0C890BA02FFF307D05031D46
:101F5200AB2FAC2F932FB62F0130F9020130FA3597
:101F6200FB0DFC0DFD0D890BB02FFC1BB92FBA2FF9
:101F7200C02F023079020318BF2FC02FAD2F79185E
:101F8200C32FC42FCC2FFF30FA05FF30FB057F3063
:101F9200FC05FF30FD050310F90C7908F400F5018A
:101FA200F601F7011830F435F50DF60DF70D890B32
:101FB200D42F7408FA047508FB047608FC04770829
:101FC200FD0478080319E62FE72FEC2FF31FEA2F01
:101FD200EB2FEC2FFD177D08F3007C08F2007B0845
:101FE200F1007A08F00008002030840000308500FB
:0E1FF20026308E3151268F3120008E31F02E98
:00000001FF
