:0C10000000008831032820008F31D52F1C
:101CEC00013400340A340434640080010131890B5E
:101CFC007B2E003421009D149D18852E862E822E5D
:101D0C001C080800F00021001D141D0883399D00DB
:101D1C001D0870049D000800FC30210099009030D3
:101D2C0027009B0021001A1F9C2E9D2E982E080028
:101D3C0022008E0121008E15083023008E001C30ED
:101D4C0021009D0060309E009F010800F1000830CA
:101D5C00F0007008F20022008E14F11BB62EB72E84
:101D6C00B82E8E10000022008E107135F000700815
:101D7C00F1000130F2027208031DC52EC62EB12EE1
:101D8C00080057302100950022008C010F302100F3
:101D9C008C0023008C01083024008C0022008D0163
:101DAC00F03021008D0023008D01F03024008D00D7
:101DBC0022008E010D3021008E00013023008E0098
:101DCC000800F900FA01FB010D2F7A087407F700DF
:101DDC0077088600870101088E31AC268E317A088F
:101DEC007307F70077088600870101088E31AC264F
:101DFC008E317A08750786007B08763D87000108CE
:101E0C008E31AC268E310130FA070030FB3D79085B
:101E1C00F700F8017B087806031D162F7A08770661
:101E2C00031D192F1A2FEB2E08008E3192268F319D
:101E3C008E31C7268F318E319E268F3110308E31E8
:101E4C0088268F310730FD001730FC006A30890B73
:101E5C002D2FFC0B2D2FFD0B2D2F00328E318026BC
:101E6C008F31FC00FD017C082000B4007D08B5001A
:101E7C0000303502813003193402031C462F472FE2
:101E8C004D2F3408813EB800FF30353DB90000308D
:101E9C0035028D30031934020318552F562F5F2F3E
:101EAC00003035026E300319340203185E2F5F2F99
:101EBC009A2FE501E601872F8030FC006508C93EAA
:101ECC00860087017C088107C930FC007C08F30080
:101EDC00AA30FD007D08F4002030F5000130F6003A
:101EEC001E308E31E7268F314E30FC00EB30890BE3
:101EFC007D2FFC0B7D2F000001302000E50700300A
:101F0C00E63D3908FD003808FC00FD36FC0CFD36BA
:101F1C00FC0C66087D02031D952F65087C020318D6
:101F2C00982F992F622FCC2FE701E801200067082A
:101F3C00C93E860087018101C930FC007C08F30092
:101F4C00AA30FD007D08F4002030F5000130F600C9
:101F5C001E308E31E7268F311030FC009430890B07
:101F6C00B52FFC0BB52F003201302000E7070030F5
:101F7C00E83D6808803AFC0080307C02031DC82FC5
:101F8C001F306702031CCB2FCC2F9C2F20008C19E9
:101F9C00D02FD12F342F0100342F883103288E31CC
:101FAC0076268F31E1008E3177268F31E2008E312B
:101FBC0078268F31E3008E3179268F31E400203082
:101FCC0084000030850041308E317A268F31A0306C
:101FDC0084000030850048308E317A268F312030D5
:101FEC008400013085001F308E317A268F3120001D
:041FFC008F311B2FD7
:00000001FF
