:0C10000000008831032820008F31CD2F24
:101E2200013400340A340434640080010131890B26
:101E3200162F003421009D149D18202F212F1D2FB5
:101E42001C080800F90021001D141D0883399D009B
:101E52001D0879049D000800FC3021009900903093
:101E620027009B0021001A1F372F382F332F08001D
:101E720022008E0121008E15083023008E001C30B6
:101E820021009D0060309E009F0108005730210014
:101E9200950022008C010F3021008C0023008C0160
:101EA200083024008C0022008D01F03021008D00CA
:101EB20023008D01F03024008D0022008E010C30B1
:101EC20021008E0023008E0108008F312D278F31D3
:101ED2008F3147278F318F3139278F3110308F3132
:101EE20023278F310730FB001730FA006A30890B45
:101EF200782FFA0B782FFB0B782F00328F311B27AC
:101F02008F31FA00FB017A08F0007B08F1007008BB
:101F1200813E2000C000FF30713DC10000307102DF
:101F2200B530031970020318972F982FA12F003094
:101F320071024830031970020318A02FA12FAF2F8E
:101F420022000E160730FB001730FA006A30890BA8
:101F5200A82FFA0BA82FFB0BA82F0032083070060F
:101F62007104031DB52FB62FC42F22000E128E1638
:101F72003D30FB00E130FA004030890BBE2FFA0BF6
:101F8200BE2FFB0BBE2F20008C19C82FC92F7F2F0D
:101F920001007F2F883103288F3113278F31FC00F6
:101FA2008F3114278F31FD008F3111278F31E200DD
:101FB2008F3112278F31E3007030840000308500AA
:101FC20009308F3115278F31203084000030850091
:101FD20042308F3115278F31A030840000308500C8
:101FE2003E308F3115278F3120308400013085003B
:0E1FF2001F308F3115278F3120008F31662F61
:00000001FF
