:0C10000000008831032820008F31D52F1C
:101CF600013400340A340434640080010131890B54
:101D0600802E003421009D149D188A2E8B2E872E3E
:101D16001C080800F00021001D141D0883399D00D1
:101D26001D0870049D000800FC30210099009030C9
:101D360027009B0021001A1FA12EA22E9D2E08000F
:101D460022008E0121008E15083023008E001C30E3
:101D560021009D0060309E009F010800F1000830C0
:101D6600F0007008F20022008E14F11BBB2EBC2E70
:101D7600BD2E8E10000022008E107135F000700806
:101D8600F1000130F2027208031DCA2ECB2EB62EC8
:101D9600080057302100950022008C010F302100E9
:101DA6008C0023008C01083024008C0022008D0159
:101DB600F03021008D0023008D01F03024008D00CD
:101DC60022008E010D3021008E00013023008E008E
:101DD6000800F900FA01FB01122F7A087407F700D0
:101DE60077088600870101088E31B1268E317A0880
:101DF6007307F70077088600870101088E31B12640
:101E06008E317A08750786007B08763D87000108C3
:101E16008E31B1268E310130FA070030FB3D79084C
:101E2600F700F8017B087806031D1B2F7A08770652
:101E3600031D1E2F1F2FF02E08008E3197268F317F
:101E46008E31CC268F318E31A3268F3110308E31D4
:101E56008D268F310730FD001730FC006A30890B64
:101E6600322FFC0B322FFD0B322F00328E3185269E
:101E76008F31FC00FD017C082000B4007D08B50010
:101E860000303502813003193402031C4B2F4C2FCE
:101E9600522F3408813EB800FF30353DB90000307E
:101EA60035028D300319340203185A2F5B2F642F25
:101EB600003035026E30031934020318632F642F85
:101EC600A32FE501E601842F8030FC006508C93E9A
:101ED600860087017C088107C930FC007C08F30076
:101EE600AA30FD007D08F4002030F5000130F60030
:101EF6001E308E31EC268F3101302000E507003090
:101F0600E63D3908FD003808FC00FD36FC0CFD36C0
:101F1600FC0C66087D02031D922F65087C020318DF
:101F2600952F962F672F0730FD001730FC006A307B
:101F3600890B9B2FFC0B9B2FFD0B9B2F0032CC2F6D
:101F4600E701E80120006708C93E86008701810194
:101F56000130E7070030E83D6808803AFC00803031
:101F66007C02031DB82F1F306702031CBB2FBC2F3A
:101F7600A52FC930FC007C08F300AA30FD007D08BF
:101F8600F4002030F5000130F6001E308E31EC26CC
:101F96008F3120008C19D02FD12F392F0100392FE6
:101FA600883103288E317B268F31E1008E317C26E5
:101FB6008F31E2008E317D268F31E3008E317E2611
:101FC6008F31E400203084000030850041308E31AE
:101FD6007F268F31A03084000030850048308E3156
:101FE6007F268F3120308400013085001F308E31EE
:0A1FF6007F268F3120008F31202F4D
:00000001FF
