:0C10000000008831032820008F31ED2F04
:101A9600640080010131890B4C2D003421009D1416
:101AA6009D18562D572D532D1C080800F0002100B7
:101AB6001D141D0883399D001D0870049D00080033
:101AC600FC3021009900903027009B0021001A1F4E
:101AD6006D2D6E2D692D080022008E0121008E15B8
:101AE600083023008E001C3021009D0060309E00CF
:101AF6009F010800F6007608031D822D832D842D94
:101B0600932D74088D3194258D3173088D3194256C
:101B16008D3175088D3194258D310130F6027E2D7B
:101B26000800F1000830F0007008F20022008E1460
:101B3600F11B9E2D9F2DA02D8E10000022008E10D1
:101B46007135F0007008F1000130F2027208031DD1
:101B5600AD2DAE2D992D080057302100950022009D
:101B66008C010F3021008C0023008C0108302400EA
:101B76008C0022008D01F03021008D0023008D01A4
:101B8600F03024008D0022008E010C3021008E00E2
:101B960023008E010800F800F901FA01F42D7908F6
:101BA6007407F60076088600870101088D319425B2
:101BB6008D3179087307F6007608860087010108DB
:101BC6008D3194258D3179087507F60076088600E3
:101BD600870101088D3194258D310130F9070030D8
:101BE600FA3D7808F600F7017A087706031DFD2D01
:101BF60079087606031D002E012ED22D080000302E
:101C06007005F80000307105F90080307205FA00A1
:101C16007F307305FB007B087A0479047804031D82
:101C2600152E162E1E2E0030F3000030F200003066
:101C3600F1000030F00000307405F8000030750542
:101C4600F90080307605FA007F307705FB007B08C7
:101C56007A0479047804031D312E322E3A2E003090
:101C6600F7000030F6000030F5000030F400F31FF6
:101C76003D2E3E2E562E0030F8000030F900003082
:101C8600FA008030FB007008F8027108F93B720810
:101C9600FA3B7308FB3B7B08F3007A08F2007908ED
:101CA600F1007808F000F71F592E5A2E722E0030D8
:101CB600F8000030F9000030FA008030FB007408AC
:101CC600F8027508F93B7608FA3B7708FB3B7B0878
:101CD600F7007A08F6007908F5007808F4008030F5
:101CE600F3068030F70677087302031D842E760804
:101CF6007202031D842E75087102031D842E74085A
:101D060070020318872E882E8A2E03108B2E03143A
:101D16000800F80078080319912E922EA62EF31FBC
:101D2600952E962EA62E7009FA007109FB007209EF
:101D3600FC007309FD00FA0A0319FB0A0319FC0AE1
:101D46000319FD0AAE2E7308FD007208FC00710827
:101D5600FB007008FA007308720471047004031D16
:101D6600B52EB62EBF2E0030F3000030F200003044
:101D7600F1000030F000372F9630F4007408F900B7
:101D8600CF2E0130F4007408F9070130FD36FC0C43
:101D9600FB0CFA0C890BC92EFE307D05031DD42ED3
:101DA600D52EC42EE92E0130F4007408F90701304F
:101DB600FA070030FB3D0030FC3D0030FD3D0130B0
:101DC600FD36FC0CFB0CFA0C890BE32EFF307D056F
:101DD600031DEE2EEF2ED62EF92E0130F90201301C
:101DE600FA35FB0DFC0DFD0D890BF32EFC1BFC2EAD
:101DF600FD2E032F023079020318022F032FF02E37
:101E06007918062F072F0F2FFF30FA05FF30FB0535
:101E16007F30FC05FF30FD050310F90C7908F4004E
:101E2600F501F601F7011830F435F50DF60DF70D4D
:101E3600890B172F7408FA047508FB047608FC044E
:101E46007708FD0478080319292F2A2F2F2FF31F4F
:101E56002D2F2E2F2F2FFD177D08F3007C08F20063
:101E66007B08F1007A08F00008008D3163258F3178
:101E76008D31AF258F318D316F258F3110308D31FA
:101E860059258F3107302000E7001730E6006A3009
:101E9600890B4B2FE60B4B2FE70B4B2F0000053022
:101EA6002000EA000030EB008D3151258F312000F3
:101EB600E600E701E801E9016908F3006808F200B5
:101EC6006708F1006608F00000308E318C268F31ED
:101ED60073082000A3007208A2007108A100700810
:101EE600A0002308F3002208F2002108F1002008D0
:101EF600F0004130F7001030F6000030F5000030F9
:101F0600F4008E3102268F31031C8A2F8B2FB72FB8
:101F160022008E1620006B08803AE60080306602AA
:101F2600031D972F05306A0203189A2F9B2F9C2FAB
:101F3600E42F4E302000E600EB30890BA02FE60B95
:101F4600A02FFF302000EA07FF30EB3D6B08803AF8
:101F5600E60080306602031DB22F05306A020318C0
:101F6600B52FB62F9C2FE42F22008E1220006B086F
:101F7600803AE60080306602031DC32F1F306A02D6
:101F8600031CC62FC72FC82FE42FC8302000E60039
:101F96006608F300F4016430E7006708F5006A0894
:101FA6008D317D258F314E302000E600EB30890BD8
:101FB600DA2FE60BDA2F01302000EA070030EB3D7E
:101FC600B92F20008C19E82FE92F572F0100572F22
:101FD60088310328203084000030850046308D315A
:101FE6004B258F31A0308400003085001F308D31A5
:0A1FF6004B258F3120008F31382F6A
:00000001FF
