:0C10000000008831032820008F31CD2F24
:101E4600013400340A340434640080010131890B02
:101E5600282F003421009D149D18322F332F2F2F49
:101E66001C080800F90021001D141D0883399D0077
:101E76001D0879049D000800FC302100990090306F
:101E860027009B0021001A1F492F4A2F452F0800C3
:101E960022008E0121008E15083023008E001C3092
:101EA60021009D0060309E009F01080057302100F0
:101EB600950022008C010F3021008C0023008C013C
:101EC600083024008C0022008D01F03021008D00A6
:101ED60023008D01F03024008D0022008E010F308A
:101EE60021008E00013023008E0008008F313F272D
:101EF6008F318F3159278F318F314B278F311030EA
:101F06008F3135278F310730FB001730FA006A30E2
:101F1600890B8B2FFA0B8B2FFB0B8B2F00328F31FC
:101F26002D278F31FA00FB017A08F0007B08F100BB
:101F36007008813E2000C000FF30713DC1000030B6
:101F46007102B530031970020318AA2FAB2FB42FF4
:101F5600003071024830031970020318B32FB42FF2
:101F6600C22F22000E160D30FB002D30FA00D8309D
:101F7600890BBB2FFA0BBB2FFB0BBB2FC42F2200E9
:101F86000E1220008C19C82FC92F922F0100922FF4
:101F9600883103288F3125278F31FC008F31262782
:101FA6008F31FD008F3123278F31E2008F312427B7
:101FB6008F31E300703084000030850009308F31A6
:101FC60027278F31203084000030850042308F3142
:101FD60027278F31A0308400003085003E308F31B6
:101FE60027278F3120308400013085001F308F3144
:0A1FF60027278F3120008F31792F4B
:00000001FF
