:0C10000000008831032820008F31D52F1C
:101CA600013400340A340434640080010131890BA4
:101CB600582E003421009D149D18622E632E5F2E2F
:101CC6001C080800F00021001D141D0883399D0022
:101CD6001D0870049D000800FC302100990090301A
:101CE60027009B0021001A1F792E7A2E752E0800D8
:101CF60022008E0121008E15083023008E001C3034
:101D060021009D0060309E009F010800F100083010
:101D1600F0007008F20022008E14F11B932E942E10
:101D2600952E8E10000022008E107135F00070087E
:101D3600F1000130F2027208031DA22EA32E8E2E90
:101D4600080057302100950022008C010F30210039
:101D56008C0023008C01083024008C0022008D01A9
:101D6600F03021008D0023008D01F03024008D001D
:101D760022008E010D3021008E00013023008E00DE
:101D86000800F900FA01FB01EA2E7A087407F70049
:101D960077088600870101088E3189268E317A08F8
:101DA6007307F70077088600870101088E318926B8
:101DB6008E317A08750786007B08763D8700010814
:101DC6008E3189268E310130FA070030FB3D7908C5
:101DD600F700F8017B087806031DF32E7A087706CC
:101DE600031DF62EF72EC82E08008E316F268E3173
:101DF6008E31A4268E318E317B268E3110308E3177
:101E060065268E310730FD001730FC006A30890BDD
:101E16000A2FFC0B0A2FFD0B0A2F00328E315D268E
:101E26008E31FC00FD017C082000B6007D08B7005D
:101E360000303702813003193602031C232F242F6A
:101E46002A2F3608813EB800FF30373DB9000030F2
:101E560037028D30031936020318322F332F3C2FE9
:101E6600003037026E300319360203183B2F3C2F21
:101E7600C92F39083502031D422F380834020318CA
:101E8600452F462F812FE501E6016E2F8030FC009D
:101E96006508C93E860087017C088100C930FC00C0
:101EA6007C08F300AA30FD007D08F4002030F50020
:101EB6000130F6001E308E31C4268E311030FC0003
:101EC6009430890B642FFC0B642F00320130200004
:101ED600E5070030E63D3908FD003808FC00FD3610
:101EE600FC0CFD36FC0C66087D02031D7C2F650884
:101EF6007C0203187F2F802F492FC92F35083902FE
:101F0600031D872F3408380203188A2F8B2FC52FFD
:101F16003508E8003408E700B22F6708C93E860096
:101F260087018101C930FC007C08F300AA30FD005E
:101F36007D08F4002030F5000130F6001E308E31A9
:101F4600C4268E311030FC009430890BA82FFC0B70
:101F5600A82F0032FF302000E707FF30E83D3908A0
:101F6600FD003808FC00FD36FC0CFD36FC0C7D0837
:101F76006802031DC02F7C0867020318C32FC42FF5
:101F8600902FC92F3908B5003808B4003908B500B4
:101F96003808B4008C19D02FD12F112F0100112F22
:101FA600883103288E3153268F31E1008E31542635
:101FB6008F31E2008E3155268F31E3008E31562661
:101FC6008F31E400203084000030850041308E31AE
:101FD60057268F31A03084000030850048308E317E
:101FE60057268F3120308400013085001F308E3116
:0A1FF60057268F3120008E31F82E9F
:00000001FF
